:020000040800F2
:10000000D00F00209D010008671500087F1300082D
:1000100065150008CD0200087920000800000000E6
:10002000000000000000000000000000431600086F
:10003000CF0200080000000089150008571B0008C7
:10004000B7010008B7010008B7010008B7010008B0
:10005000B7010008B7010008B7010008B7010008A0
:10006000B7010008B7010008B7010008B701000890
:10007000B7010008B7010008B7010008B701000880
:10008000B7010008B7010008B7010008B701000870
:10009000B7010008B7010008B7010008B701000860
:1000A000B7010008B7010008B7010008B701000850
:1000B000B7010008B7010008B7010008B701000840
:1000C000B7010008B7010008B7010008B701000830
:1000D000B70100086D200008B7010008B70100084B
:1000E000B7010008B7010008B7010008B701000810
:1000F000B7010008B7010008B7010008B701000800
:10010000B7010008B7010008B7010008B7010008EF
:10011000B7010008351C0008B7010008B701000846
:10012000B7010008B7010008B7010008B7010008CF
:10013000B70100080000000000000000B70100083F
:10014000B7010008B7010008B7010008B7010008AF
:10015000B7010008B7010008B7010008B70100089F
:10016000B7010008B7010008B7010008B70100088F
:10017000B7010008B70100080000000000000000FF
:10018000B7010008B7010008DFF80CD000F08CF8C8
:1001900000480047E9230008D00F002006488047A8
:1001A00006480047FEE7FEE7FEE7FEE7FEE7FEE75C
:1001B000FEE7FEE7FEE7FEE7E11B00088901000815
:1001C0002DE9F05F0546002092469B46884606468C
:1001D000814640241BE0284641464746224600F01F
:1001E00053F853465A46C01A914110D31146184647
:1001F000224600F03AF82D1A67EB01084F462246D6
:100200000120002100F031F817EB00094E41201EBB
:10021000A4F10104DFDC484631462A464346BDE8E6
:10022000F09F40EA01039B0703D009E008C9121FB1
:1002300008C0042AFAD203E011F8013B00F8013BA0
:10024000521EF9D27047D2B201E000F8012B491ECC
:10025000FBD270470022F6E710B513460A46044663
:100260001946FFF7F0FF204610BD202A04DB203A94
:1002700000FA02F1002070479140C2F1200320FAF9
:1002800003F3194390407047202A04DB203A21FAF7
:1002900002F00021704721FA02F3D040C2F120029F
:1002A0009140084319467047064C074D06E0E06848
:1002B00040F0010394E8070098471034AC42F6D3AD
:1002C000FFF766FF6024000880240008FEE77047FF
:1002D00000B587B000F064FA00F0B4FA0220009094
:1002E0000120039055200490684600F0D3F900F0F7
:1002F00041FA10B1012007B000BD00F047FA00F04C
:100300002FFA0020F7E70000002229B101291AD0B6
:1003100002291BD04FF440720E490B6823F440733E
:100320000B600B6813430B600A6822F0F8020A6046
:100330000A68022303EBC00002430A60086840F425
:100340008030086070474FF48072E5E74FF4007228
:10035000E2E70000103C02401348016889050FD510
:10036000016821F400710160016841F400610160DD
:10037000016821F400610160016841F400710160CD
:10038000016849050FD5016821F4806101600168A9
:1003900041F480510160016821F4805101600168DD
:1003A00041F4806101607047003C024008B5084A92
:1003B000002342F8083B022382E80B0000F042FAD7
:1003C0006946034800F01AF900F0CAF9002008BD98
:1003D000B80000202DE9F041164688460546002465
:1003E00000F030FA124F1AE058F824202968002350
:1003F000022000F0E9F920B100F0B2F90120BDE8D7
:10040000F0812868016858F82400814203D000F088
:10041000A7F90220F3E72868001D2860641CB44295
:1004200002D22868B842DFD900F09AF90020E6E746
:10043000FBFF0F0808490A6822F440720A600A6844
:1004400042F004020A600A684FF4803343EA002055
:1004500002430A6070470000103C0240064A1368DD
:1004600023F44073136013681360136843F00103AF
:100470001360017070470000103C0240084910B53D
:100480000C6824F440740C600C6844F440740C60F4
:100490000C6844F001040C600260436010BD000071
:1004A000103C0240074A136823F44073136013683A
:1004B00043F480731360136843F0010313600180F9
:1004C00070470000103C0240074A136823F4407351
:1004D0001360136843F400731360136843F001035F
:1004E0001360016070470000103C02401749086823
:1004F000C206174805D5C26942F01002C261102237
:100500000A600A68920605D5C26942F00802C26113
:1005100020220A600A68520605D5C26942F0040228
:10052000C26140220A600A68120605D5C26942F01B
:100530000202C26180220A600A68920705D5C26978
:1005400042F02002C2610220086070470C3C024069
:100550009800002070B5114904460020C86100F0E1
:1005600065FA06460E4D09E0601C07D024B100F084
:100570005DFA801BA04201D9032070BD2868C0032A
:10058000F2D42868C00701D001202860286810F044
:10059000F200F2D0FFF7AAFF012070BD9800002002
:1005A0000C3C02401CB500208DF80000019000F0CA
:1005B0003DFA43F698240190684601F04BFA10B1D9
:1005C0009DF800001CBD00F031FA0199401AA042CC
:1005D000F2D901F0E5FEEFE790F83510022903D0DB
:1005E0008021416501207047052180F835100068A1
:1005F000016821F001010160002070472DE9F047FA
:10060000044622480F46017E01290AD00121804676
:1006100001764CF250394846FFF79CFF020003D0A8
:100620002FE00220BDE8F0874FF0FF3038602068EF
:10063000174D012801D0A6681CE0207C6168FFF7F7
:10064000F9FE4846FFF786FF0246286820F00400BE
:10065000286014E0217C3046FFF756FE4846FFF73D
:1006600079FF0200286820F0FA00286001D03E607F
:1006700005E0761CD4E902100844B042EAD8FFF73E
:100680006BFE002188F818101046CBE79800002078
:10069000103C02402DE9F0472E49044601200A7E15
:1006A000012A11D0012288460A7621784CF2503A6C
:1006B000C90715D06068284D0128A668504606D0A5
:1006C000FFF748FF48B10BE00220BDE8F087FFF7D5
:1006D00041FF28B92988B14301E0298831432980A5
:1006E0002178890707D5257C5046FFF733FF10B9DD
:1006F0001949491E0D702178DFF86090490713D51C
:10070000207E00F0200700F0400500F080065046F3
:10071000FFF720FF40B999F8002002F01F021543AF
:1007200035433D4389F8005021784FF00002090716
:100730000CD5207D99F8003023F00C0389F80030A7
:1007400099F80030034389F80030104688F81820E3
:10075000BBE7000098000020163C0240143C024019
:100760000348016841F0004101600020704700002B
:10077000103C02400448017841F0020101704CF243
:100780005030FFF7E7BE0000143C02400348016808
:1007900041F001010160002070470000143C02405C
:1007A00006480068C00707D0044805490C380160B6
:1007B000044901600020704701207047143C02404A
:1007C0003B2A19087F6E5D4C2DE9F0471B4E05460C
:1007D0001446307E1F468946012808D00120307615
:1007E0004CF250384046FFF7B5FE18B114E0022035
:1007F000BDE8F0879DB1012D16D0022D19D02246FB
:100800003B464846FFF73AFE4046FFF7A3FE0C4939
:100810000A6822F001020A6000213176E8E7E1B2BD
:100820004846FFF71BFEEFE7A1B24846FFF73AFE46
:10083000EAE721464846FFF747FEE5E79800002033
:10084000103C0240074900200A68002A09DA054ADC
:10085000054B0C3A1360054B13600968002900DA58
:1008600001207047103C024023016745AB89EFCD62
:100870002DE9F84FDFF87CB100224FF001084FF06E
:10088000030A4FF00F090BF1040E00BF0B6808FAC2
:1008900002F42340A3426ED14D68022D01D0122DE7
:1008A0000ED1D50800EB850CDCF820505607F70E6A
:1008B00009FA07F6B5430E69BE402E43CCF8206016
:1008C000066855000F790AFA05FC07F0030726EAC7
:1008D0000C06AF40374307604E68012E05D0022E4C
:1008E00003D0112E01D0122E0ED18668CF6826EAD1
:1008F0000C06AF40374387604668A6430C79C4F3C3
:100900000014944034434460C6688C6826EA0C06A0
:10091000AC403443C4604C68E40065D5364C25686F
:1009200045F480452560246822F0030504F48044E2
:100930000094324C2E19D6F8084895072F0F09FA63
:1009400007F5AC432E4DA84201D1002524E02D4DE2
:10095000A84201D101251FE02B4DA84201D102255B
:100960001AE02A4DA84201D1032515E0284DA842DE
:1009700002D1042510E037E0264DA84201D105251B
:100980000AE0254DA84201D1062505E0234DA842E5
:1009900001D1072500E00825BD402543C6F80858C9
:1009A000DBF800405D464E689C43F60300D51C43CF
:1009B0002C60DEF8004075464E689C43B60300D5B7
:1009C0001C432C600B4D08352C684E689C43F60286
:1009D00000D51C432C60074D0C352C684E689C4399
:1009E000B60200D51C432C60521C102AFFF44EAFF7
:1009F000BDE8F88F003C014044380240003001401F
:100A0000000002400004024000080240000C0240C6
:100A1000001002400014024000180240001C024076
:100A20000AB1816170470904FBE700000148806852
:100A300070470000000000200248816802781144DD
:100A400081607047000000200B4810B5016841F438
:100A500000710160016841F480610160016841F446
:100A600080710160032000F06DF8002000F006F8AE
:100A700000F024F8002010BD003C024070B50D4D80
:100A800004464FF47A712878B1FBF0F00A490968FE
:100A9000B1FBF0F000F0E0FA48B9102C07D20022C8
:100AA0002146501E00F02EF800206C6070BD012021
:100AB00070BD0000000000200C0000200A4808B5AE
:100AC000016841F480410160006800F480400090BA
:100AD0000548001F016841F080510160006800F086
:100AE0008050009008BD00004438024000F01F0212
:100AF000012191404009800000F1E020C0F8001180
:100B000070470000F0B40E4B1B680C46C3F3022381
:100B1000C3F10705042D00D90425191D072901D2A9
:100B2000002300E0DB1E012606FA05F1491E2140E4
:100B300099409E40761E16403143F0BC00F014BD33
:100B40000CED00E0064900F0070208684FF6FF03CD
:100B5000184040EA0220034A104308607047000032
:100B60000CED00E00000FA052DE9F0470E46050007
:100B700065D0DFF81481D8F80000F7B200F00F005C
:100B8000B04207D288F80070D8F8000000F00F00DB
:100B9000B04254D128683D4C810712D5400703D597
:100BA000206840F4E05020602878000703D52068D2
:100BB00040F4604020602068A96820F0F0000843FD
:100BC00020602878C0072DD030496868083901288E
:100BD00012D0022813D0032811D0096889070029F0
:100BE0002DDA216821F0030101432160FFF71EFF88
:100BF000814641F2883A0EE009688903EFE7096807
:100C00008901ECE7FFF712FFA0EB0901514502D97A
:100C10000320BDE8F0872068696800F00C00B0EBA5
:100C2000810FEFD1D8F80010404601F00F01B1421A
:100C300007D90770006800F00F00B04201D0012012
:100C4000E7E72878400705D52068E96820F4E050F8
:100C5000084320602878000706D52068296920F419
:100C6000604040EAC100206000F036F82168084A80
:100C7000C1F30311515CC840064908600020FFF72A
:100C8000FDFE0020C5E70000003C0240083802409D
:100C9000482400080C000020044805490068096841
:100CA000044AC1F38221515CC84070470C00002007
:100CB00008380240582400080448054900680968BB
:100CC000044AC1F34231515CC84070470C00002017
:100CD0000838024058240008154810B5006810F084
:100CE0000C02144813D01449042A0FD0082A0ED13C
:100CF0000F4C241F2268236802F03F025B0207D5D5
:100D00002068C0F38810A0FB010106E0084610BD72
:100D10002168C1F38811A1FB00010023FFF750FAFD
:100D20002168C1F30141491C4900B0FBF1F010BD3D
:100D3000083802400024F40040787D012DE9F84F86
:100D4000050076D02878DFF8F8B2BE4CC00749D04D
:100D5000DBF800105846C1F38101012908D0006872
:100D6000C0F3810002280AD1201D0068400206D588
:100D70002068800336D568680028E2D032E06868D1
:100D8000B0F5803F10D0B0F5A02F206810D020F42F
:100D900080302060206820F4802020606868A0B146
:100DA000FFF744FE06460CE0206840F48030F4E78C
:100DB00040F480202060F7E7FFF738FE801B6428AE
:100DC00073D820688003F7D50CE0FFF72FFE0646A6
:100DD00005E000BFFFF72AFE801B6428F0D82068DA
:100DE0008003F7D42878DFF8608280074FF000098D
:100DF0003ED5DBF80010584611F00C0F09D0006802
:100E0000C0F3810002280BD18D48001F006840020A
:100E100006D42068800715D5E868012809D111E0BB
:100E2000E868B8B10120C8F80000FFF7FFFD0646EA
:100E300005E002E1FFF7FAFD801B0228C0D8206818
:100E40008007F7D52068296920F0F80040EAC10042
:100E500020600DE0C8F80090FFF7E8FD064604E0CA
:100E6000FFF7E4FD801B02281FD820688007F7D415
:100E70002878000722D5724E744869696C3671B1C2
:100E800001210160FFF7D2FD074604E0FFF7CEFD28
:100E9000C01B022809D830688007F7D50EE0C0F8DB
:100EA0000090FFF7C3FD074605E083E0FFF7BEFDB6
:100EB000C01B02287ED830688007F7D42878400706
:100EC00068D5DFF87CA100270AF1380ADAF80000BB
:100ED000C0000BD4DAF8001041F08051CAF80010BD
:100EE000DAF80000012700F080500090584E30687A
:100EF000C00510D4306840F480703060FFF796FD74
:100F0000009005E0FFF792FD0099401A022851D8A1
:100F10003068C005F6D54A4EA868683601280FD05B
:100F20000528306810D020F001003060306820F0D3
:100F300004003060A868B8B1FFF778FD00900FE0BA
:100F4000306840F00100F4E740F004003060F7E75B
:100F5000FFF76CFD0099411A41F28830814264D854
:100F600030688007F4D50EE0FFF760FD009007E0E1
:100F7000FFF75CFD0099411A41F28830814254D854
:100F800030688007F4D42FB1DAF8001021F08051D6
:100F9000CAF80010A869C0B3DBF80010C1F38101E2
:100FA00002294AD00228484607D0C8F86000FFF757
:100FB0003DFD00E039E005463AE04746C8F86000EC
:100FC000FFF734FD064604E0FFF730FD801B0228E2
:100FD0002BD820688001F7D4D5E907010843A96A16
:100FE0001C4A490802EB01416A6A41EA821108433E
:100FF00095F82C1040EA01611148001F01600120A2
:101000003866FFF713FD054605E014E0FFF70EFD17
:10101000401B022809D820688001F7D50BE000BFEB
:10102000FFF704FD401B022802D90320BDE8F88F1A
:1010300020688001F4D40020F8E70120F6E70000E2
:10104000083802400038024000004742800E474204
:10105000007000400000FFFF10B5401EB0F1807F1F
:1010600001D3012010BD4FF0E02460610F21601713
:1010700000F07AFA0020A06107202061002010BD56
:101080007047000070B5026804461068D168536963
:1010900010F00F0F50D003F0010501F490763543A6
:1010A0005DD0C20705D0CA0503D5E26B42F001024C
:1010B000E263420705D5DA0703D0E26B42F0020291
:1010C000E263820705D5DA0703D0E26B42F004023F
:1010D000E263020705D5DA0703D0E26B42F00802AB
:1010E000E263E26B002A33D0800604D5880602D57D
:1010F000204600F0BBFD20684069E16BC0F3801022
:10110000090700D428B3204600F0A2FD20684169F9
:1011100049061AD5416921F040014161606BA0B1D7
:101120001B490165606BFFF757FA002810D0606B10
:10113000016DBDE870400847830610D58B060ED5BB
:101140002046BDE8704000F091BD2046FFF798FFB3
:1011500070BD2046FFF794FF0020E06370BD0306DA
:1011600006D50B0604D52046BDE8704000F01ABF36
:101170004006F3D54806F1D5D168204621F040015C
:10118000D160202184F8391000F0F8F870BD00001B
:10119000411C000870B5040004D094F83900002503
:1011A00010B106E0012070BD84F83850204600F0F0
:1011B00023F8242084F839002068C16821F4005104
:1011C000C160204600F098FD2068016921F490413B
:1011D00001612068416921F02A0141612068C168EC
:1011E00041F40051C160E563202084F8390084F89F
:1011F0003A00002070BD0000F0B587B0044614210D
:101200006846FFF727F8284A216828480224012564
:101210000326914227D1254910310A6842F48012F1
:101220000A60096801F480110591016841F0040128
:101230000160016801F004010591016841F00801B5
:1012400001600068082700F008000590E0028DE8C2
:10125000F10069461648FFF70BFB04208DE8F1000A
:10126000694614481CE0144A91421BD10F491431BD
:101270000A6842F010020A60096801F01001059145
:10128000016841F0010101600068694600F0010059
:1012900005904FF4C0608DE8710007200490074866
:1012A000FFF7E6FA07B0F0BD0050004030380240CA
:1012B00000080240000C0240001001400000024003
:1012C00070472DE9F843044690F839001F4616464A
:1012D0000D46202850D1A5B19EB194F838000128C0
:1012E0004AD0012084F838004FF00008C4F83C8050
:1012F000212084F83900FFF799FBA6848146E68413
:1013000026E00120BDE8F883E08C401EE084A06860
:101310004B46B0F5805F4FF000024FF08001204651
:10132000009703D000F06FFEE8B90DE000F06BFE0F
:10133000C8B928882168C0F308004860206908B14E
:101340006D1C05E0AD1C03E0216815F8010B486039
:10135000E08C0028D8D14B4600224021204600973F
:1013600000F051FE08B10320CCE7202084F83900BA
:1013700084F838800020C5E70220C3E77047FEE705
:10138000F0B500220D4B154614460A27B1FBF3F6C3
:1013900030368654B1FBF3F603FB1611B3FBF7F3BB
:1013A000521C861816F8016C302E00D125B16D1C28
:1013B000641C0A2CEAD3F0BD0022F9E700CA9A3B6C
:1013C00030B587B014216846FEF744FF1A48002460
:1013D000016841F004010160016801F00401059118
:1013E000016841F080010160016801F08001059110
:1013F000016841F001010160016801F001010591FE
:10140000016841F00801016000680C4D00F008001F
:101410000590012210212846FFF702FB10200090C2
:101420000120CDE901040320039069462846FFF717
:101430001FFA07B030BD0000303802400000024003
:1014400008B500208DF8000015A000F01BFB1CA0C3
:1014500000F018FB12A000F015FB21A000F012FB19
:1014600027A000F00FFB2EA000F00CFB34A000F032
:1014700009FBFFF797F88DF800009DF80000302871
:1014800001D100F08DFF9DF80000312801D100F05E
:10149000D9F89DF800003228D3D100F0D9F9D0E76F
:1014A0000D0A3D3D3D3D3D3D3D3D3D3D3D3D3D3DCF
:1014B0003D3D3D3D3D3D3D3D3D3D3D3D3D3D3D0099
:1014C0000D0A20202020524D2D5445434820424FE4
:1014D0004F544C4F41444552205631332020200078
:1014E0000D0A20202020202020302E2046617374F9
:1014F00020657865637574652020202020202000F9
:101500000D0A20202020202020312E204170702024
:101510007772697465202020202020202020200060
:101520000D0A20202020202020322E2044617461CA
:101530002077726974652020202020202020200040
:101540000D0A3D3D3D3D3D3D3D3D3D3D3D3D3D3D2E
:101550003D3D3D3D3D3D3D3D3D3D3D3D3D3D3D0DEB
:101560000A000000FEE770470907090E002806DAA6
:1015700000F00F0000F1E02080F8141D704700F12A
:10158000E02080F800147047704770B50C4605469F
:1015900004E0284600F05EFA012804D0641EF8D268
:1015A0004FF0FF3070BD002070BD2DE9F84F884628
:1015B00000210646C8F80010924611466846FFF71B
:1015C000E4FF4FF0FF39B0BB9DF80000182814D09D
:1015D00006DC012809D0022809D004282BD12EE0EE
:1015E000412816D0612826D113E0802401E04FF471
:1015F000806401253070671D15E051466846FFF78D
:10160000C4FFC0B99DF80000182814D1C8F8009094
:1016100015E00120BDE8F88F70195146FFF7B5FFBE
:1016200048B96D1CADB2BD42F6D3B178707881F087
:10163000FF01884201D04846ECE7C8F8004000208E
:10164000E8E770473EB51CA207CA8DE807001DA059
:1016500000F018FA26A000F015FA344800F00EFD4C
:10166000041E14DD32A000F00DFA3E4800F00AFA24
:1016700021466846FFF784FE3BA000F003FA684667
:1016800000F000FA3BA000F0FDF93DA00AE0601C6C
:1016900007D0A01C09D0E01C09D0241D09D03EA011
:1016A00000E046A000F0EEF93EBD54A0FAE75AA0D3
:1016B000F8E760A0F6E7000020202020202020206E
:1016C00020200000312E206170706C6963617469A4
:1016D0006F6E2061726561207772697465202830B1
:1016E000783038303038303030290A0D00000000B2
:1016F00057616974696E6720666F7220746865202F
:1017000066696C6520746F2062652073656E742E47
:101710002E2E202870726573732027612720746F26
:101720002061626F7274290A0D000000CC00002055
:101730000D0A2050726F6772616D6D696E6720438C
:101740006F6D706C65746564205375636365737346
:1017500066756C6C79210D0A2D2D0D0A204E616D78
:10176000653A2000CC0400200D0A2053697A653ABE
:10177000200000002042797465730D0A000000000B
:101780002D2D2D2D2D2D2D2D2D2D2D2D2D2D2D2D89
:101790002D2D2D0D0A0000000D0A0D0A4661696C01
:1017A000656420746F20726563656976652074686E
:1017B000652066696C65210D0A0000000D0A0D0A9E
:1017C00054686520696D6167652073697A65206971
:1017D0007320686967686572207468616E20746838
:1017E0006520616C6C6F7765642073706163652040
:1017F0006D656D6F7279210D0A0000000D0A0D0AEA
:10180000566572696669636174696F6E20666169A5
:101810006C6564210D0A00000D0A0D0A0D0A416273
:101820006F7274656420627920757365722E0D0A7B
:1018300000000000202020424F4F544C4F414445AF
:10184000525F54494D454F55542E2E2E2E0D0A00F1
:101850003EB51CA207CA8DE807001DA000F012F9D2
:1018600024A000F00FF9324800F0C8FC041E14DD7B
:1018700030A000F007F93C4800F004F92146684622
:10188000FFF77EFD39A000F0FDF8684600F0FAF899
:1018900039A000F0F7F83BA00AE0601C07D0A01CBC
:1018A00009D0E01C09D0241D09D03CA000E044A0D0
:1018B00000F0E8F83EBD52A0FAE758A0F8E75EA0B5
:1018C000F6E70000202020202020202020200000FB
:1018D000322E2064617461206172656120777269C3
:1018E0007465202830783038304330303030290A61
:1018F0000D00000057616974696E6720666F722081
:101900007468652066696C6520746F206265207359
:10191000656E742E2E2E20287072657373202761D9
:101920002720746F2061626F7274290A0D00000015
:10193000CC0000200D0A2050726F6772616D6D69D6
:101940006E6720436F6D706C6574656420537563BA
:101950006365737366756C6C79210D0A2D2D0D0A04
:10196000204E616D653A2000CC0400200D0A205302
:10197000697A653A200000002042797465730D0A87
:10198000000000002D2D2D2D2D2D2D2D2D2D2D2D3B
:101990002D2D2D2D2D2D2D0D0A0000000D0A0D0AC7
:1019A0004661696C656420746F2072656365697651
:1019B00065207468652066696C65210D0A00000069
:1019C0000D0A0D0A54686520696D616765207369A9
:1019D0007A65206973206869676865722074686138
:1019E0006E2074686520616C6C6F7765642073701D
:1019F000616365206D656D6F7279210D0A000000CD
:101A00000D0A0D0A566572696669636174696F6EC5
:101A1000206661696C6564210D0A00000D0A0D0ADB
:101A20000D0A41626F727465642062792075736576
:101A3000722E0D0A00000000202020424F4F544C0F
:101A40004F414445525F54494D454F55542E2E2E1B
:101A50002E0D0A00054909680A68D243920603D48C
:101A6000496801700120704700207047180000206D
:101A700001B53223012269460148FFF722FC08BD67
:101A80001800002010B5044603E000BFFFF7F0FF88
:101A9000641C20780028F9D110BD70B500220478AC
:101AA0001346302C04D14478782C0AD0582C08D016
:101AB0006FF02F05845C74B36B2C2ED04B2C2CD084
:101AC00030E082780AB30224025D5AB1A2F14105E6
:101AD000052D0AD9A2F16106052E06D91135092D69
:101AE00007D913E001200B6011E0A2F13006092EA6
:101AF00001D8303A04E0052D01D8373A00E0573AD2
:101B0000641C02EB03130B2CDED302E000200B2C31
:101B100000D3002070BD0B6002E01AB1980207E00C
:101B2000012015E06D2C01D04D2C03D112B1180508
:101B30000860F5E7A4F13006092E08D803EB83030B
:101B400005EB4303521C23440B2AB3D3E1E70020E7
:101B50000B2ADED270BDFEF76FBF000030B593B028
:101B600030216846FEF776FB14210CA8FEF772FBC5
:101B700019480025016841F080510160006800F0BB
:101B8000805011901548016841F48041016000685F
:101B9000022400F480401190012003901020049052
:101BA000009406940820CDE90750A820CDE9090447
:101BB00004200B906846FFF7C1F80CA90F2081E8BC
:101BC00031004FF4A0500F90E002109005210CA8B6
:101BD000FEF7CAFF13B030BD40380240007000402D
:101BE0001048016841F4700101600F48016841F03C
:101BF000010101600C4A00210832116002680B4BA0
:101C00001A400260031D0A4A1A60026822F4802208
:101C1000026005480C3001600249580680390860AE
:101C20007047000088ED00E000380240FFFFF6FE3C
:101C3000103000240148FFF725BA000018000020EA
:101C400010B5806B0021C185C184FFF719FA10BD62
:101C50000168CA6822F49072CA6001684A6922F079
:101C600001024A61202180F83A10704710B590F8BF
:101C70003A10222901D0022010BD8168B1F5805FA1
:101C800011D00169002901681FD0496801F07F0364
:101C9000816A4A1C82620B70C18D491E0904090CBD
:101CA000C18518D026E00269816A002A026852685C
:101CB00005D0D2B20A80816A491C8162ECE7C2F386
:101CC00008020A80816A891CF7E74A68816A4B1C0E
:101CD00083620A70E0E70168CA6822F49072CA6001
:101CE00001684A6922F001024A61202180F83A1015
:101CF000FFF7E6FA002010BD2DE9F0410446006828
:101D0000016921F44052E168114301612168C8680A
:101D100049F20C6290432369A268E5691A4363693A
:101D20002B431A430243CA602168486920F4407279
:101D3000A06910434861E1696425B1F5004F9748F7
:101D4000974A21684FF032083FD0914201D081423A
:101D50007CD1FEF7B1FF00EBC00101EB0010616820
:101D60008900B0FBF1F6FEF7A7FF00EBC00101EB25
:101D7000001061688900B0FBF1F0B0FBF5F06FF086
:101D80001801484306EB800108EB0110B0FBF5F0A9
:101D900000F0F006FEF790FF00EBC00101EB001031
:101DA00061688900B0FBF1F0B0FBF5F006EB0016BE
:101DB000FEF782FF00EBC00101EB001061688900B3
:101DC000B0FBF1F7FEF778FFD2E0914201D08142FB
:101DD0003DD1FEF771FF00EBC00101EB001061681F
:101DE0004900B0FBF1F0B0FBF5F00601FEF764FF2F
:101DF00000EBC00101EB001061684900B0FBF1F796
:101E0000FEF75AFF00EBC00101EB001061684900CA
:101E1000B0FBF1F0B0FBF5F06FF01801484307EBB1
:101E2000800108EBC100B0FBF5F000F0F80006EB14
:101E30004006FEF741FF00EBC00101EB00106168B6
:101E40004900B0FBF1F7FEF737FF3CE055E0FEF745
:101E500023FF00EBC00101EB001061684900B0FBFB
:101E6000F1F0B0FBF5F00601FEF716FF00EBC00144
:101E700001EB001061684900B0FBF1F7FEF70CFFC1
:101E800000EBC00101EB001061684900B0FBF1F00C
:101E9000B0FBF5F06FF01801484307EB800108EB49
:101EA000C100B0FBF5F000F0F80006EB4006FEF7CD
:101EB000F3FE00EBC00101EB001061684900B0FBCC
:101EC000F1F7FEF7E9FE00EBC00101EB00106168DD
:101ED0004900B0FBF1F0B0FBF5F06FF0180148439A
:101EE00007EB800108EBC100B0FBF5F000F0070044
:101EF000216830448860BDE8F081FEF7CDFE00EB3C
:101F0000C00101EB001061688900B0FBF1F6FEF73B
:101F1000C3FE00EBC00101EB001061688900B0FB5B
:101F2000F1F0B0FBF5F06FF01801484306EB8001CB
:101F300008EB0110B0FBF5F000F0F006FEF7ACFE88
:101F400000EBC00101EB001061688900B0FBF1F00B
:101F5000B0FBF5F006EB0016FEF79EFE00EBC001AD
:101F600001EB001061688900B0FBF1F7FEF794FE09
:101F700000EBC00101EB001061688900B0FBF1F0DB
:101F8000B0FBF5F06FF01801484307EB800108EB58
:101F90000110B0FBF5F000F00F00A9E700140140BC
:101FA0000010014090F83910212901D0022070471B
:101FB0008168B1F5805F016A0BD04A1C0262026839
:101FC00009785160C18C491E0904090CC1840ED0E6
:101FD00017E009880268C1F308015160016900290E
:101FE000016A02D0491C0162ECE7891CFBE7016829
:101FF000CA6822F08002CA600068C16841F04001EE
:10200000C160002070472DE9F041984617460E4602
:102010000446069D1DE0681C1BD02DB1FEF706FD91
:10202000A0EB0800A84214D92068C16821F4D0713F
:10203000C1602068416921F001014161202084F8DC
:10204000390084F83A00002084F838000320BDE805
:10205000F0812068006836EA000004D00020B84211
:10206000D9D00020F3E70120F9E700000148FFF78D
:1020700009B8000058000020FEE700002DE9F04FED
:10208000ADF2444D06464FF0000A5A48CDF818A468
:10209000CDF83004D3465446D04687014FF0FF397F
:1020A00000253A460DF22C416846FFF77EFA90B1C2
:1020B00001287FD0B8F1000F00DD641C052C71DD14
:1020C0001820FFF7D5FC1820FFF7D2FC00200DF2F6
:1020D000444DBDE8F08FDDF82C2400244A4507D09C
:1020E00042B19DF80100E9B288420AD015207DE096
:1020F0000620E9E70620FFF7BBFCBBF1000FCFD0BD
:1021000069E0CDB130460DF10301FEF78AF8DDF844
:102110002C04CDF80C64C0F38D0231460DF58660B9
:10212000FEF758F9D8B31820FFF7A2FC1820FFF7E4
:102130009FFC6FF00100CAE79DF8030088B30021FF
:102140002D4A0DF1030002E05354401C491C037852
:102150000BB1FF29F8DD02F801A000210DF21C42AD
:10216000401C02E05354401C491C0378202B01D032
:102170001029F7DB02F801A00DF583611046FFF787
:102180008CFCDDF818046FF47821C8420BD91820B4
:10219000FFF76EFC1820FFF76BFC484697E71DE041
:1021A00008E015E021E009210220FEF7FFF8CDF854
:1021B0000C0440B11820FFF75BFC1820FFF758FC17
:1021C0006FF0020083E70620FFF752FC432006E091
:1021D0000620FFF74DFCDDF8180478E70620FFF72E
:1021E00047FC4FF001086D1C5BE74320FFF740FC04
:1021F00057E7000000800008CC0400202DE9F04FD4
:10220000ADF2444D06464FF0000A5B48CDF818A4E5
:10221000CDF83004D3465446D0464FF400174FF063
:10222000FF3900253A460DF22C416846FFF7BDF90B
:1022300098B1012876D0B8F1000F00DD641C052CA0
:1022400072DD1820FFF714FC5FF01800FFF710FC98
:1022500000200DF2444DBDE8F08FDDF82C24002461
:102260004A4507D042B19DF80100E9B288420AD040
:1022700015207DE00620E9E70620FFF7F9FBBBF11A
:10228000000FCED069E0CDB130460DF10301FDF76E
:10229000C8FFDDF82C04CDF80C64C0F38D02314684
:1022A0000DF58660FEF796F8D8B31820FFF7E0FB2F
:1022B0001820FFF7DDFB6FF00100CAE79DF803006F
:1022C00088B300212D4A0DF1030002E05354401C55
:1022D000491C03780BB1FF29F8DD02F801A00021A9
:1022E0000DF21C42401C02E05354401C491C037870
:1022F000202B01D01029F7DB02F801A00DF5836136
:102300001046FFF7CAFBDDF818046FF47821C842C5
:102310000BD91820FFF7ACFB1820FFF7A9FB4846A4
:1023200097E71DE008E015E021E001210A20FEF713
:102330003DF8CDF80C0440B11820FFF799FB1820A8
:10234000FFF796FB6FF0020083E70620FFF790FB94
:10235000432006E00620FFF78BFBDDF8180478E742
:102360000620FFF785FB4FF001086D1C5AE743205C
:10237000FFF77EFB56E7000000000C08CC040020AD
:1023800002E008C8121F08C1002AFAD1704770473E
:10239000002001E001C1121F002AFBD1704700009C
:1023A00010B507A0FFF76EFB0D4948680D4A506055
:1023B0001060096881F30888BDE8104000470000FC
:1023C0003D3D3D3D3D20426F6F744C6F61646572D1
:1023D00020454E44203D3D3D3D3D0D0A0D0A000087
:1023E0000080000810000020FEF72EFBFFF7B6FB70
:1023F000FEF7E6FF134812490C2201604FF4E13169
:10240000416000218160C160C0E904128161C16145
:10241000FEF7C0FE002211462520FEF773FB2520A3
:10242000FEF764FB002211463520FEF76BFB3520DA
:10243000FEF75CFBFDF74CFFFFF702F8FEE700003C
:1024400000500040180000200000000000000000C4
:10245000010203040607080900000000010203044A
:1024600080240008000000201800000080230008DD
:102470009824000818000020B80F000090230008DE
:102480000100000010000000000000000024F40023
:08249000000000000000000044
:040000050800018965
:00000001FF
